{
  "contractName": "WorkoutList",
  "abi": [
    {
      "inputs": [],
      "payable": false,
      "stateMutability": "nonpayable",
      "type": "constructor"
    },
    {
      "constant": true,
      "inputs": [],
      "name": "workoutCount",
      "outputs": [
        {
          "internalType": "uint256",
          "name": "",
          "type": "uint256"
        }
      ],
      "payable": false,
      "stateMutability": "view",
      "type": "function"
    },
    {
      "constant": true,
      "inputs": [
        {
          "internalType": "uint256",
          "name": "",
          "type": "uint256"
        }
      ],
      "name": "workouts",
      "outputs": [
        {
          "internalType": "uint256",
          "name": "id",
          "type": "uint256"
        },
        {
          "internalType": "string",
          "name": "workoutName",
          "type": "string"
        },
        {
          "internalType": "uint256",
          "name": "burnedCalories",
          "type": "uint256"
        },
        {
          "internalType": "uint256",
          "name": "workoutTime",
          "type": "uint256"
        },
        {
          "internalType": "uint256",
          "name": "timeStamp",
          "type": "uint256"
        }
      ],
      "payable": false,
      "stateMutability": "view",
      "type": "function"
    },
    {
      "constant": false,
      "inputs": [
        {
          "internalType": "string",
          "name": "_workoutName",
          "type": "string"
        },
        {
          "internalType": "uint256",
          "name": "_burnedCalories",
          "type": "uint256"
        },
        {
          "internalType": "uint256",
          "name": "_workoutTime",
          "type": "uint256"
        },
        {
          "internalType": "uint256",
          "name": "_timeStamp",
          "type": "uint256"
        }
      ],
      "name": "createWorkout",
      "outputs": [],
      "payable": false,
      "stateMutability": "nonpayable",
      "type": "function"
    }
  ],
  "bytecode": "0x60806040526000805534801561001457600080fd5b506103f0806100246000396000f3fe608060405234801561001057600080fd5b506004361061005d577c0100000000000000000000000000000000000000000000000000000000600035046335422e0f81146100625780639b4b45261461007c578063cd56ec311461012f575b600080fd5b61006a6101e0565b60408051918252519081900360200190f35b61012d6004803603608081101561009257600080fd5b8101906020810181356401000000008111156100ad57600080fd5b8201836020820111156100bf57600080fd5b803590602001918460018302840111640100000000831117156100e157600080fd5b91908080601f01602080910402602001604051908101604052809392919081815260200183838082843760009201919091525092955050823593505050602081013590604001356101e6565b005b61014c6004803603602081101561014557600080fd5b5035610268565b6040518086815260200180602001858152602001848152602001838152602001828103825286818151815260200191508051906020019080838360005b838110156101a1578181015183820152602001610189565b50505050905090810190601f1680156101ce5780820380516001836020036101000a031916815260200191505b50965050505050505060405180910390f35b60005481565b6000805460019081018083556040805160a08101825282815260208082018a81528284018a90526060830189905260808301889052938652848152919094208451815591518051929361024193908501929190910190610320565b50604082015160028201556060820151600382015560809091015160049091015550505050565b600160208181526000928352604092839020805481840180548651600296821615610100026000190190911695909504601f810185900485028601850190965285855290949193929091908301828280156103045780601f106102d957610100808354040283529160200191610304565b820191906000526020600020905b8154815290600101906020018083116102e757829003601f168201915b5050505050908060020154908060030154908060040154905085565b828054600181600116156101000203166002900490600052602060002090601f016020900481019282601f1061036157805160ff191683800117855561038e565b8280016001018555821561038e579182015b8281111561038e578251825591602001919060010190610373565b5061039a92915061039e565b5090565b6103b891905b8082111561039a57600081556001016103a4565b9056fea265627a7a72315820f44d6f937e705cc0552ffa734d6c791ee27db9bcbe6424ecfcb9035bb912addc64736f6c63430005100032",
  "source": "// SPDX-License-Identifier: SEE LICENSE IN LICENSE\npragma solidity ^0.5.0;\n\ncontract WorkoutList {\n    uint public workoutCount = 0;\n    mapping(uint => Workout) public workouts;\n\n    struct Workout {\n        uint id;\n        string workoutName;\n        uint burnedCalories;\n        uint workoutTime;\n        uint timeStamp;\n    }\n\n    constructor() public {}\n\n    function createWorkout(\n        string memory _workoutName,\n        uint _burnedCalories,\n        uint _workoutTime,\n        uint _timeStamp\n    ) public {\n        workoutCount++;\n        workouts[workoutCount] = Workout(\n            workoutCount,\n            _workoutName,\n            _burnedCalories,\n            _workoutTime,\n            _timeStamp\n        );\n    }\n}\n",
  "sourcePath": "/Users/mac/Documents/BlockChain/eth-todo-list/contracts/WorkoutList.sol",
  "compiler": {
    "name": "solc",
    "version": "0.5.16+commit.9c3226ce.Emscripten.clang"
  },
  "schemaVersion": "3.4.13",
  "updatedAt": "2023-04-16T14:11:50.709Z",
  "networkType": "ethereum",
  "devdoc": {
    "methods": {}
  },
  "userdoc": {
    "methods": {}
  }
}