{
  "contractName": "WorkoutList",
  "abi": [
    {
      "inputs": [],
      "payable": false,
      "stateMutability": "nonpayable",
      "type": "constructor"
    },
    {
      "constant": true,
      "inputs": [],
      "name": "workoutCount",
      "outputs": [
        {
          "internalType": "uint256",
          "name": "",
          "type": "uint256"
        }
      ],
      "payable": false,
      "stateMutability": "view",
      "type": "function"
    },
    {
      "constant": true,
      "inputs": [
        {
          "internalType": "uint256",
          "name": "",
          "type": "uint256"
        }
      ],
      "name": "workouts",
      "outputs": [
        {
          "internalType": "uint256",
          "name": "id",
          "type": "uint256"
        },
        {
          "internalType": "string",
          "name": "workoutName",
          "type": "string"
        },
        {
          "internalType": "uint256",
          "name": "burnedCalories",
          "type": "uint256"
        },
        {
          "internalType": "uint256",
          "name": "workoutTime",
          "type": "uint256"
        },
        {
          "internalType": "string",
          "name": "imageHash",
          "type": "string"
        },
        {
          "internalType": "uint256",
          "name": "timeStamp",
          "type": "uint256"
        }
      ],
      "payable": false,
      "stateMutability": "view",
      "type": "function"
    },
    {
      "constant": false,
      "inputs": [
        {
          "internalType": "string",
          "name": "_workoutName",
          "type": "string"
        },
        {
          "internalType": "uint256",
          "name": "_burnedCalories",
          "type": "uint256"
        },
        {
          "internalType": "uint256",
          "name": "_workoutTime",
          "type": "uint256"
        },
        {
          "internalType": "string",
          "name": "_imageHash",
          "type": "string"
        },
        {
          "internalType": "uint256",
          "name": "_timeStamp",
          "type": "uint256"
        }
      ],
      "name": "createWorkout",
      "outputs": [],
      "payable": false,
      "stateMutability": "nonpayable",
      "type": "function"
    }
  ],
  "bytecode": "0x60806040526000805534801561001457600080fd5b506105a3806100246000396000f3fe608060405234801561001057600080fd5b506004361061005d577c0100000000000000000000000000000000000000000000000000000000600035046335422e0f8114610062578063c4416c111461007c578063cd56ec31146101b9575b600080fd5b61006a6102d0565b60408051918252519081900360200190f35b6101b7600480360360a081101561009257600080fd5b8101906020810181356401000000008111156100ad57600080fd5b8201836020820111156100bf57600080fd5b803590602001918460018302840111640100000000831117156100e157600080fd5b91908080601f016020809104026020016040519081016040528093929190818152602001838380828437600092019190915250929584359560208601359591945092506060810191506040013564010000000081111561014057600080fd5b82018360208201111561015257600080fd5b8035906020019184600183028401116401000000008311171561017457600080fd5b91908080601f01602080910402602001604051908101604052809392919081815260200183838082843760009201919091525092955050913592506102d6915050565b005b6101d6600480360360208110156101cf57600080fd5b503561037d565b604051808781526020018060200186815260200185815260200180602001848152602001838103835288818151815260200191508051906020019080838360005b8381101561022f578181015183820152602001610217565b50505050905090810190601f16801561025c5780820380516001836020036101000a031916815260200191505b50838103825285518152855160209182019187019080838360005b8381101561028f578181015183820152602001610277565b50505050905090810190601f1680156102bc5780820380516001836020036101000a031916815260200191505b509850505050505050505060405180910390f35b60005481565b6000805460019081018083556040805160c08101825282815260208082018b81528284018b9052606083018a90526080830189905260a083018890529386528481529190942084518155915180519293610338939085019291909101906104d3565b506040820151600282015560608201516003820155608082015180516103689160048401916020909101906104d3565b5060a082015181600501559050505050505050565b600160208181526000928352604092839020805481840180548651600296821615610100026000190190911695909504601f810185900485028601850190965285855290949193929091908301828280156104195780601f106103ee57610100808354040283529160200191610419565b820191906000526020600020905b8154815290600101906020018083116103fc57829003601f168201915b505050505090806002015490806003015490806004018054600181600116156101000203166002900480601f0160208091040260200160405190810160405280929190818152602001828054600181600116156101000203166002900480156104c35780601f10610498576101008083540402835291602001916104c3565b820191906000526020600020905b8154815290600101906020018083116104a657829003601f168201915b5050505050908060050154905086565b828054600181600116156101000203166002900490600052602060002090601f016020900481019282601f1061051457805160ff1916838001178555610541565b82800160010185558215610541579182015b82811115610541578251825591602001919060010190610526565b5061054d929150610551565b5090565b61056b91905b8082111561054d5760008155600101610557565b9056fea265627a7a72315820ffb63ccd0ab976a13ca17ba250a254f1208a6a80a838d0fce2d7ced15a47f60164736f6c63430005100032",
  "source": "// SPDX-License-Identifier: SEE LICENSE IN LICENSE\npragma solidity ^0.5.0;\n\ncontract WorkoutList {\n    uint public workoutCount = 0;\n    mapping(uint => Workout) public workouts;\n\n    struct Workout {\n        uint id;\n        string workoutName;\n        uint burnedCalories;\n        uint workoutTime;\n        string imageHash;\n        uint timeStamp;\n    }\n\n    constructor() public {}\n\n    function createWorkout(\n        string memory _workoutName,\n        uint _burnedCalories,\n        uint _workoutTime,\n        string memory _imageHash,\n        uint _timeStamp\n    ) public {\n        workoutCount++;\n        workouts[workoutCount] = Workout(\n            workoutCount,\n            _workoutName,\n            _burnedCalories,\n            _workoutTime,\n            _imageHash,\n            _timeStamp\n        );\n    }\n}\n",
  "sourcePath": "/Users/mac/Documents/BlockChain/eth-todo-list/contracts/WorkoutList.sol",
  "compiler": {
    "name": "solc",
    "version": "0.5.16+commit.9c3226ce.Emscripten.clang"
  },
  "schemaVersion": "3.4.13",
  "updatedAt": "2023-03-27T08:50:49.432Z",
  "networkType": "ethereum",
  "devdoc": {
    "methods": {}
  },
  "userdoc": {
    "methods": {}
  }
}