{
  "contractName": "WorkoutList",
  "abi": [
    {
      "constant": true,
      "inputs": [],
      "name": "workoutCount",
      "outputs": [
        {
          "name": "",
          "type": "uint256"
        }
      ],
      "payable": false,
      "stateMutability": "view",
      "type": "function",
      "signature": "0x35422e0f"
    },
    {
      "constant": true,
      "inputs": [
        {
          "name": "",
          "type": "uint256"
        }
      ],
      "name": "workouts",
      "outputs": [
        {
          "name": "id",
          "type": "uint256"
        },
        {
          "name": "workoutName",
          "type": "string"
        },
        {
          "name": "burnedCalories",
          "type": "uint256"
        },
        {
          "name": "workoutTime",
          "type": "uint256"
        }
      ],
      "payable": false,
      "stateMutability": "view",
      "type": "function",
      "signature": "0xcd56ec31"
    },
    {
      "inputs": [],
      "payable": false,
      "stateMutability": "nonpayable",
      "type": "constructor",
      "signature": "constructor"
    },
    {
      "constant": false,
      "inputs": [
        {
          "name": "_workoutName",
          "type": "string"
        },
        {
          "name": "_burnedCalories",
          "type": "uint256"
        },
        {
          "name": "_workoutTime",
          "type": "uint256"
        }
      ],
      "name": "createWorkout",
      "outputs": [],
      "payable": false,
      "stateMutability": "nonpayable",
      "type": "function",
      "signature": "0x2fe542ef"
    }
  ],
  "bytecode": "0x60806040526000805534801561001457600080fd5b506103e2806100246000396000f3fe6080604052600436106100565763ffffffff7c01000000000000000000000000000000000000000000000000000000006000350416632fe542ef811461005b57806335422e0f14610115578063cd56ec311461013c575b600080fd5b34801561006757600080fd5b506101136004803603606081101561007e57600080fd5b81019060208101813564010000000081111561009957600080fd5b8201836020820111156100ab57600080fd5b803590602001918460018302840111640100000000831117156100cd57600080fd5b91908080601f01602080910402602001604051908101604052809392919081815260200183838082843760009201919091525092955050823593505050602001356101f3565b005b34801561012157600080fd5b5061012a610263565b60408051918252519081900360200190f35b34801561014857600080fd5b506101666004803603602081101561015f57600080fd5b5035610269565b6040518085815260200180602001848152602001838152602001828103825285818151815260200191508051906020019080838360005b838110156101b557818101518382015260200161019d565b50505050905090810190601f1680156101e25780820380516001836020036101000a031916815260200191505b509550505050505060405180910390f35b6000805460019081018083556040805160808101825282815260208082018981528284018990526060830188905293865284815291909420845181559151805192936102479390850192919091019061031b565b5060408201516002820155606090910151600390910155505050565b60005481565b600160208181526000928352604092839020805481840180548651600296821615610100026000190190911695909504601f810185900485028601850190965285855290949193929091908301828280156103055780601f106102da57610100808354040283529160200191610305565b820191906000526020600020905b8154815290600101906020018083116102e857829003601f168201915b5050505050908060020154908060030154905084565b828054600181600116156101000203166002900490600052602060002090601f016020900481019282601f1061035c57805160ff1916838001178555610389565b82800160010185558215610389579182015b8281111561038957825182559160200191906001019061036e565b50610395929150610399565b5090565b6103b391905b80821115610395576000815560010161039f565b9056fea165627a7a72305820aae783082fb33083613228b538274da965d3c1d5639c9c82605d3f3693f2b1120029",
  "source": "// SPDX-License-Identifier: SEE LICENSE IN LICENSE\npragma solidity ^0.5.0;\n\ncontract WorkoutList {\n    uint public workoutCount = 0;\n    mapping(uint => Workout) public workouts;\n\n    struct Workout {\n        uint id;\n        string workoutName;\n        uint burnedCalories;\n        uint workoutTime;\n    }\n\n    constructor() public {}\n\n    function createWorkout(\n        string memory _workoutName,\n        uint _burnedCalories,\n        uint _workoutTime\n    ) public {\n        workoutCount++;\n        workouts[workoutCount] = Workout(\n            workoutCount,\n            _workoutName,\n            _burnedCalories,\n            _workoutTime\n        );\n    }\n}\n",
  "sourcePath": "/Users/mac/Documents/BlockChain/eth-todo-list/contracts/WorkoutList.sol",
  "compiler": {
    "name": "solc",
    "version": "0.5.0+commit.1d4f565a.Emscripten.clang"
  },
  "schemaVersion": "3.0.1",
  "updatedAt": "2022-10-25T19:33:03.808Z",
  "devdoc": {
    "methods": {}
  },
  "userdoc": {
    "methods": {}
  }
}